:1000000000300020A93D00008D6F00008D6F0000C2
:100010008D6F00008D6F00008D6F00008D6F0000F0
:100020008D6F00008D6F00008D6F00008D6F0000E0
:100030008D6F00008D6F00008D6F00008D6F0000D0
:100040008D6F00008D6F00008D6F00008D6F0000C0
:100050008D6F00000D3400008D6F00008D6F00006B
:100060008D6F00008D6F00008D6F00008D6F0000A0
:10007000213D00008D6F00008D6F00008D6F00002E
:100080008D6F0000B92B0000512A00009928000054
:100090008D6F00008D6F00008D6F00008D6F000070
:1000A0008D6F00008D6F00008D6F00008D6F000060
:1000B0008D6F00008D6F00008D6F00008D6F000050
:10040000FFFFFFFFFFFFFFFFFFFFFFFFFFE4FEFF18
:1004100002B4714649084900095649008E4402BC9D
:100420007047C04602B4714649084900095C49005A
:100430008E4402BC7047C046002934D001230022FC
:1004400010B488422CD301242407A14204D2814253
:1004500002D209011B01F8E7E400A14204D2814263
:1004600002D249005B00F8E7884201D3401A1A43E0
:100470004C08A04202D3001B5C0822438C08A04217
:1004800002D3001B9C082243CC08A04202D3001BCD
:10049000DC082243002803D01B0901D00909E3E747
:1004A000101C10BC7047002801D00020C04307B4C6
:1004B000024802A14018029003BDC0461900000086
:1004C0000029F0D003B5FFF7B9FF0EBC4243891AEB
:1004D0001847C0467047C0468446101C62468C468A
:1004E000191C634600E0C0461FB501F0C9F800289A
:1004F00001D40021C8421FBD10B501F00FF84042E1
:10050000013010BD10B501F0BBF8002801DB002060
:1005100010BD012010BDC04610B501F0B1F8002893
:1005200001DD002010BD012010BDC04610B501F056
:1005300033F8002801DC002010BD012010BDC046AA
:1005400010B501F029F8002801DA002010BD0120C3
:1005500010BDC0468446081C6146FFE71FB500F089
:10056000C7FB002801D40021C8421FBD10B500F010
:100570004FFB4042013010BD10B500F0B9FB002820
:1005800001DB002010BD012010BDC04610B500F0F9
:10059000AFFB002801DD002010BD012010BDC046CA
:1005A00010B500F05DFB002801DC002010BD01202B
:1005B00010BDC04610B500F053FB002801DA002042
:1005C00010BD012010BDC0469E2110B5C905041CF8
:1005D000FFF7F0FF002803D1201C00F0D7FE10BD6C
:1005E0009E22201CD10500F0FBFC00F0CFFE8023F2
:1005F0001C060019F3E7C046F8B5430242004F025B
:100600004C00C00F9B09120E061C9C46240EC90FFD
:10061000BF09884254D0151B002D00DC7BE0002C64
:100620003ED1002F61D0013D002D00D0A8E0DB1BA2
:10063000141C061C590141D59A019509281C01F08A
:10064000A1FF05388540844200DD76E0001B1F24B1
:100650002B1C411C221ACB4095401F1C2B1C5D1EDD
:10066000AB413B43012500240F201840042800D053
:10067000043301210E40580105D5FF2D5AD0B34C4B
:1006800023402C1C0135EDB2D908012D3BDD4B0276
:10069000590AE4B2E4052143F607081C3043F8BDCB
:1006A000FF2A2BD08021CC04274301231B2D49DDB9
:1006B0006746FB1A141C061C5901BDD4651CD3E700
:1006C000151B002D4FDD002C13D0FF2A5AD080249B
:1006D000E1040F4301231B2D00DCB0E06344141C34
:1006E000590155D4651C061CBEE7551C141C061C7C
:1006F000BAE7002F7CD1551C141CB5E78027634650
:100700007D00FF24B0E70029C3D0002C28D080272B
:10071000FA031143BBE7002D47D1501CC3B2012B94
:1007200000DC96E06446E51B680158D53D1B0E1CB5
:10073000141C83E7FF240021ACE7844B241A2B40D0
:10074000651C91E73E1C2021EE404D1BAF403B1C39
:100750005F1EBB4133436746FB1A141C061CABE704
:100760004802410A96E7002D7FD1541CE1B20129CD
:1007700053DDFF2C00D19BE0FB185B08951C73E751
:10078000FF2A92D1061C802063464500FF246BE7B8
:10079000671CFF2F3CD06D4A01261E4013405B08AA
:1007A0003343A51C061C3C1C5EE76842002A25D08A
:1007B000FF2C70D08022D6041D1C3543AC46012688
:1007C0001B2809DC62462025C2402B1A604698404F
:1007D000061C701E86411643BB1B0E1C2AE7141C08
:1007E000002D00D02AE7002601250423002442E73B
:1007F000013D002D08D1FB18141C71E7002B50D1CE
:10080000651C3B1C0E1C2FE7FF2A00D062E7B9E7EE
:1008100080235D00FF2404232DE7002A7CD1002BD8
:1008200000D1A0E0002F00D1AEE0FB18590100D4A8
:10083000AFE0464E022533400124061C14E73C1C61
:100840002023EC405D1BAF403B1C5F1EBB4123439C
:1008500044E7002A12D16546002D41D1002FC2D0B5
:100860003B1C0E1C01250024FEE66D42002A23D10C
:10087000002B66D1651C3B1C061CF5E66246002A6F
:1008800038D1002F07D1802200265500304BFF249D
:10089000F1E6FF2C93D13B1C80270E1C7D00FF242A
:1008A000E2E601380028F4D16646BB1B0E1CC1E607
:1008B00080277D000423DEE6FF2C5BD08022D1045C
:1008C0000B439C4601231B2D08DC20216246EA4095
:1008D00063464D1BAB40591E8B411343DB19FFE6AA
:1008E000002F37D0EB1B5A014AD57B1B0E1C01256C
:1008F0000024B9E6002F00D100E78020D308C4030C
:10090000234204D0FF08274201D13B1C0E1C80214A
:10091000DB004D00FF24A7E6002B1FD0002F00D1E5
:10092000ECE68022DE08D503311C2E4203D0F90804
:10093000294200D0311C061C8020CB004500FF243A
:1009400092E6013D002D13D1FB18C9E6FFFFFFFB26
:10095000FCFFFF0363460125002485E68024650033
:100960003B1CFF2480E63B1C061C012500247BE683
:10097000FF2CA7D13B1C8027061C7D00FF2473E6BB
:10098000002B00D12FE76DE66346061C01250024ED
:100990006AE6061C0125002466E6C046F0B55F46FF
:1009A00056464D464446F0B44502440083B00E1C02
:1009B0006D0A240EC70F002C07D1002D00D091E046
:1009C000042101228846924609E0FF2C55D080235D
:1009D000180400210543ED007F3C88468A46331CFD
:1009E00058007602D90F760A000E8B464CD10122B0
:1009F0009446002E00D081E05B467B406246414633
:100A000001930A430F2A50D9201A690181467501C2
:100A1000A94200D3B3E00122534299441B2400268B
:100A20000127621E381C10404B007600002900DAB6
:100A3000A9E09D4200D8A6E0013C002C00DCABE020
:100A400000280CD0191C76005B00002901DB9D42B8
:100A500001D85B1B3E43013C002C00DC9CE05900AC
:100A60007200002B01DB8D4201D8491B3A43013C47
:100A70004B0056000029EADAEBE7002D2DD10820C3
:100A8000022180468A46AAE7FF2820D0802213044C
:100A900000211E438C465B467B4062464146F60081
:100AA0007F3801930A430F2AAED8564992008A58DC
:100AB0009746019BFF260025F0052843DE073043BB
:100AC00003B03CBC90469946A246AB46F0BD331CF1
:100AD0005A1E934102339C468EE70C220323904614
:100AE0009A467CE7281C01F04DFD7622441F5342B4
:100AF000A5401C1A00208046824670E7301C01F099
:100B000041FD7623411F8E405A420021101A8C4627
:100B100072E700233C4DFF26CEE75F46351C019768
:100B20006346022BC5D0032B63D0012B43D049462B
:100B30007F31002935DD0F272F40042F00D00435E9
:100B40002B0103D5314A494615408031FE29B0DCDE
:100B5000A801450ACEB2019BAEE700260025ABE70F
:100B60008020C1030D4211D00E420FD10E437302FB
:100B70005D0AFF265B469FE701975346D1E7491B75
:100B80001A2401264CE75B1B3E4355E70D436A02DE
:100B9000550A3B1CFF268FE71D1C6B1E9D413543EC
:100BA000C5E77E2467424A46B91A1B2908DD019B26
:100BB0000026002580E7019D00262B4000257BE7CD
:100BC0004E469E36281CB5402B1C5D1EAB41C840CE
:100BD00003430F251D40042D00D004335A0103D5D3
:100BE000019B0126002567E79C01650A019B002601
:100BF00062E78027FC0325436E02750A019BFF26EE
:100C00005AE7C046F8830000FFFF7F00FFFFFFF7B1
:100C10004302420070B55C0AC60F130E48024A0038
:100C2000450A120EC90FFF2B05D0FF2A08D001205C
:100C300093420BD070BD0120002CFBD1FF2AF6D1CE
:100C40000120002DF6D101209342F3D1AC42F1D125
:100C50008E4203D0002BEDD1002CEBD10020E9E730
:100C6000F0B5430242004F00C60F48025C0A450A35
:100C7000130EC90F3A0EFF2B26D0FF2A29D0002BC6
:100C80000CD1604260418446002A0AD0002816D167
:100C90008E4221D0002E14D1012014E0002AF7D179
:100CA00094466F426F416046002805D1002FEFD077
:100CB0000120002E07D004E00020002F03D10029DE
:100CC000EAD101214842F0BD002CD6D00222504288
:100CD000F9E7002DD3D0F9E79342DBDC04DBAC422B
:100CE000D8D80020AC42EED2002EEAD00120EAE7AC
:100CF000F0B5430242004F00C60F48025C0A450AA5
:100D0000130EC90F3A0EFF2B26D0FF2A28D0002B36
:100D10000FD0002A14D194466F426F4160460028DC
:100D200014D00020002F03D100290DD10121484209
:100D3000F0BD604260418446002AEDD00028F3D126
:100D40008E4211D0002EF1D10120F1E7002FF7D013
:100D50000120002EECD0E9E70220002CE8D1D4E7F6
:100D60000220002DE4D1D2E79342EBDC04DBAC425D
:100D7000E8D80020AC42DBD2002ED7D00120D7E744
:100D8000F0B55F4656464D464446F0B4450246002F
:100D900083B00F1C6D0A360EC40F002E06D1002D35
:100DA00070D1042101228846924609E0FF2E43D0EB
:100DB0008023180400210543ED007F3E88468A46C3
:100DC000381C43007F02C10F7F0A1B0E8B463AD1AD
:100DD0000121002F62D158466040424601900A43EB
:100DE0000F2A3FD92C04F018260C3B041A0C311C96
:100DF00051433F0C2D0C7E436A438146080C361844
:100E00002C1CB3187C439A4200D99AE009041D04B3
:100E1000080C2E18B5011B0C691E8D41B20EE71887
:100E20001543BC0125432B014BD50120284001214E
:100E30006D088944054344E0002D1ED1082002219D
:100E400080468A46BCE7FF2B12D08022100407435D
:100E50005846002160404246FF007F3B01900A4314
:100E60000F2ABFD890005B4A8446624410688746C8
:100E7000391C4A1E91410231ADE70C2203239046F2
:100E80009A469DE7281C01F07DFB7622461F5342BF
:100E9000B5401E1A00208046824691E7381C01F0BA
:100EA00071FB7621431F4A429F400021131A92E7AB
:100EB0000194514602292CD0032900D180E0012958
:100EC00048D04E467F36002E51DD0F242C40042C96
:100ED00000D004352A0103D53F494E460D408036E7
:100EE000FE2E3DDD019B01241C40FF210025C8058D
:100EF000E2072843104303B03CBC90469946A24603
:100F0000AB46F0BD0024354DFF21F0E751460229E4
:100F1000D2D1019D01242C40FF210025E7E75E4648
:100F20003D1C0196C6E73D1CC4E78026F3031D4225
:100F30000BD01F4209D11F437A02550A5C46FF219C
:100F4000D5E780225702E41960E71D436F027D0A4E
:100F5000FF21CCE7019B00251940CCB20021C6E758
:100F60000198AD0101246D0AF1B20440BFE77E266D
:100F700073424A469F1A1B2F05DD019D01242C4018
:100F800000210025B3E749469E312C1C8D402E1CC4
:100F9000FC40751EAE4126430F203040042800D08F
:100FA0000436700105D5019F01243C400121002534
:100FB0009DE7019AB30101245D0A1440002196E7E0
:100FC0008022D00305436C020199650A01240C407C
:100FD000FF218CE738840000FFFFFFF7FFFF7F0051
:100FE000F8B5430245004F024C00C20F98098446F1
:100FF0002D0E200EC90FBF09FF2851D001267140C8
:101000008A4238D02C1A002C00DC86E0002822D13D
:10101000002F48D16E1C2C1C6346151C0F221A4051
:10102000042A00D0043301222A40580106D5FF2E9D
:1010300000D181E0B04D341C2B400136F6B2DD0802
:10104000012E62DD6802450AE4B2E4052543281C4E
:10105000D2071043F8BDFF2D51D08021CB041F4390
:1010600001261B2C70DD67462C1CBB1B151C580170
:1010700022D4661CD2E72E1A002E76DD002832D04C
:10108000FF2D3CD08024E1040F4301231B2E00DC04
:10109000D1E063442C1C58017AD4661C151CBDE7B2
:1010A000002FADD1AAE7013C002C6DD163462C1C6A
:1010B000DB1B151C5801DCD59A019609301C01F088
:1010C00061FA05388640844239DC001B1F231A1A56
:1010D000331C311C441C9340E1405E1EB3410B4362
:1010E000012600249AE7002F00D193E7013E002E4D
:1010F00003D164463B192C1CCDE7FF2DC5D1151C2F
:10110000802263465600FF2488E7002D9CD0002CE7
:1011100028D08027F9030D4394E7002C45D16B1CA0
:10112000D8B2012800DC90E06446E61B730157D575
:101130003E1B2C1C0D1CC1E7FF24002585E76E4BD0
:10114000241A3340661C69E7381C2021E0400C1B40
:10115000A7403E1C771EBE41064367462C1CBB1BA6
:10116000151C84E76B025D0A6FE7002E79D16C1CB9
:10117000E0B201284BDDFF2C00D198E061467F18DA
:10118000AE1C7B08151C49E7FF2D00D068E7B6E7C9
:10119000671CFF2F36D058480121194003405B08D7
:1011A000A61C0B433C1C151C38E76642002D1ED0C4
:1011B000FF286FD080256246EB041A439446012530
:1011C0001B2E09DC62462023F24064469E1BB4407D
:1011D000251C6C1EA54115437B1B041C0D1C69E7D7
:1011E000002E0CD100220126042300241DE76446B2
:1011F000002C55D1461C3B1C041C0D1C0EE72C1C5E
:10120000151C5BE780235E00FF2404230DE7002DFF
:1012100000D08CE06546002D00D1ACE0002F00D15D
:1012200080E07B195C0100D47DE0334F151C3B400E
:1012300002260124F2E6381C2023F0409E1BB74012
:101240003B1C5F1EBB41034323E7002D15D16546C0
:10125000002D47D1002FC5D03B1C0D1C01260024BA
:10126000DCE67642002D26D16546002D00D07CE0DC
:10127000461C3B1C041C151CD0E66546002D3FD1C6
:10128000002F07D1802100224E001C4BFF24CCE60A
:10129000FF2894D180203B1C0D1C4600FF24BDE696
:1012A000013E002EF4D13B1B0D1C041C02E78025DF
:1012B0006E000423B9E6FF2851D080246146E30480
:1012C00019438C4601231B2E09DC20216446F4407F
:1012D00065468E1BB5402B1C591E8B412343DB19E1
:1012E000041CD8E6002F1DD0EB1B58014AD57B1BF0
:1012F00001260D1C002491E6FFFFFFFBFCFFFF030E
:10130000002F00D1FBE68020EB08C403234237D036
:10131000FF08274234D13B1C0D1C8022DB00560005
:10132000FF247BE66346151C0126002476E664460E
:10133000002C14D0002F00D1E1E68023E608D8036A
:10134000311C064203D0F908014200D0311C151CA3
:101350008022CB005600FF2460E6FF28B2D1802017
:101360003B1C151C4600FF2458E6013E002EF4D11C
:101370007B19041C8FE63B1C151C012600244DE63E
:10138000151CCAE7002B00D12CE7CCE74302420032
:10139000590A00B5130EC20F00207E2B0DDD9D2BC8
:1013A0000CDC802000040143952B0ADC9620C31A34
:1013B000D9404842002A00D1081C00BD02495018FB
:1013C000FBE7963B9940F4E7FFFFFF7F70B5041EF3
:1013D0003CD0C50F00D04442201C01F0D3F89E2120
:1013E000261C0B1A962B0ADC0838844061024C0A32
:1013F000DBB2DB051C43ED07201C284370BD992B95
:101400000ADD0522141A311CE140041C1B34A640DD
:101410000A1C711E8E41164305281BDC144C0F223A
:1014200034401640042E00D00434620105D59F23B9
:101430001B1AFF2B0CD00E4804405E1CF1B2E408CE
:1014400001290ADD6402640ADBB2D2E70025002329
:101450000024CEE7411F8E40E0E7002CF4D0002BA3
:1014600003D08022D0030443ECE76602740AC0E78D
:10147000FFFFFFFB10B5041E34D001F083F89E235C
:101480001B1A962B07DC083884406402610ADBB221
:10149000D805084310BD992B0ADD021C1B32211C04
:1014A00091400A1C511E8A410521091ACC4014435F
:1014B00005281ADC184A0F2122400C40042C00D0C9
:1014C0000432510105D59F24231AFF2B21D0124845
:1014D0000240591CCCB2D208012C09DD5002410A4D
:1014E000DBB2D5E700230021D2E7421F9440E1E7B9
:1014F000002A0BD0002B06D08021CC0322435202BD
:10150000510ADBB2C4E75002410AC1E7DBB2002155
:10151000BEE7FF230021BBE7FFFFFFFBF0B59446CA
:1015200047461A03061C580080B4170B420D194891
:101530000D034C00DB0F2D0B640DC90F9846844240
:1015400008D0144882420DD00120944212D004BC2D
:101550009046F0BD2B1C33430120002BF7D10D48E2
:101560008242F1D163463B430120002BEFD10120A1
:101570009442ECD1BD42EAD16645E8D1414506D05E
:10158000002CE4D1281C3043451EA841DFE7002091
:10159000DDE7C046FF070000F0B557464E4645461A
:1015A000E0B4041C4E000803C90F8A46171C5900FA
:1015B0001A03050B700D160B4A0D3049DB0F9C46C4
:1015C000884232D02D498A4235D000280FD1291CBB
:1015D00021434B424B419846002A0BD0002B1AD195
:1015E000E2452CD05546002D18D1012018E0002AE4
:1015F000F6D19046311C39434B424B4141460029BC
:1016000006D1002BECD056460120002E08D005E074
:101610000020002B04D16746002FE6D10123584259
:101620001CBC90469946A246F0BD2B1C2343C9D052
:1016300002214842F4E7331C3B43C6D0F8E790420E
:1016400005DC09DA5246002AE8D00120E8E75446D2
:10165000002CE3D10120E3E7B542C3D807D0002036
:10166000B542DDD250460028D8D00120D8E7BC4290
:10167000B8D80020BC42F5D3D2E7C046FF0700002F
:10168000F0B544465F4656464D46F0B49446061CB7
:101690001A035800170B420D2E480D034C00DB0FA8
:1016A0002D0B640DC90F9846844233D029488242DD
:1016B00036D0002C19D0002A20D1934663463B43F4
:1016C000584258415B468246002B1DD051460020AF
:1016D000002904D14246002A14D1012460423CBCB6
:1016E00090469946A246AB46F0BD2B1C3343584268
:1016F00043419B46002AE1D0002BEBD1414515D058
:101700000029EAD10120EAE70028F7D001200029CA
:10171000E5D0E2E72B1C33430220002BDFD1C5E7E5
:1017200063463B430220002BD9D1C2E79442E7DC59
:1017300005DBBD42E4D806D00020BD42CFD200294F
:10174000CBD00120CBE76645DAD800206645F6D33A
:10175000C5E7C046FF070000F0B5564644465F4661
:101760004D46F0B44F001D1C0B03141C1A0B7B0DCF
:1017700087B0061C92469846CF0F002B21D102431A
:1017800000D149E15346002B00D1E4E1504600F07E
:10179000F9FE031E272B00DDD8E1083B5146994096
:1017A00028228846111A321CCA4041460A439246F2
:1017B0009E40D84B0022181A002180469146039182
:1017C00011E0D54883423ED0802153464A031A4354
:1017D000D000710F0843D14A824600230020F60052
:1017E000904499460390291C201C251C4A000C0398
:1017F000CB0F240B520D9B4631D1211C014300D14C
:1018000012E1002C00D19DE1201C00F0BBFE272836
:1018100000DD91E1031C2822083B291C121A9C4080
:10182000D1400C439D40BB4B59461A1A79400020C9
:101830004B46019103430F2B26D89900B84B8C4699
:10184000634419688F46111C314300D0DFE008263D
:1018500000200221B146824600260391C3E7AE482C
:10186000824200D1C9E080214B031C43AB49680F81
:10187000E4000443ED0052180020594679404B46DD
:10188000019103430F2BD8D9424433042904049215
:101890001A0C0F0C101C7843360C331C80462D0C90
:1018A0007B43301C6843111C69439C464346834676
:1018B000180C08186044844500D91FE1010C434608
:1018C000039119040B0C0004C0182104240C05908A
:1018D000101C6243090C02924843321C66434A437F
:1018E000029BB146060C9046B4461A1C6244424420
:1018F000904502D9802673029944160CB046C14423
:1019000000044B46060C1204029393195646320407
:10191000100C021C6A439C46031C7B439146320C0C
:10192000574398461B0C9A46D144B94455434F45FA
:1019300002D980277E02AD194B461F0C4646ED1991
:101940001F0433041E0C031C4B4360435143544398
:101950001A0C8018B046401847449A46814202D972
:1019600080214E02A419039B1A1C62445A4462450A
:1019700089414E425146B34603040E049C460299E7
:10198000330C6344CE18B046C246DA44D219BA4288
:10199000BF4151467B426F18F9189946DA459B4181
:1019A0005E42029BB3469845B64176425B461E4373
:1019B000000C49459B41AF42AD4136186F42584239
:1019C000384336180598341956020643CB0D640285
:1019D000701E8641D20D164349021C430E43E0019E
:1019E0002FD50127049D374073083E1CE0070135C1
:1019F0001E4304950643640823E0231C2B43032065
:101A0000002B00D039E700240025022035E70C2206
:101A1000032391460393E6E6042600230120B14602
:101A20009A4600260390DEE600240025012024E7E4
:101A300003985446022844D0032800D1EAE0012844
:101A400060D0049A37495018002800DC95E00F2731
:101A50003740042F05D0311DB142B641754264199B
:101A60000E1CE10105D53048049A8023DF000440B4
:101A7000D0192E49884224DC019B6507F6086402D0
:101A8000420501272E43240B520D1F400020002148
:101A9000090D0D052543264C12052C401443630007
:101AA000301C5E08FF07311C394307B03CBC904630
:101AB0009946A246AB46F0BD5A462E1C019202281A
:101AC000BAD1019E01273740134A00240026DDE7E2
:101AD000544601970398ADE701260027154C76423E
:101AE0000D4AD3E72E1CA5E7802213035146194265
:101AF00035D10B431D032C0B074AC7E780214B024E
:101B00009B44DBE6019B00221840C7B2002400265C
:101B1000BCE7C0460DFCFFFFFF07000001FCFFFF14
:101B200078840000FF030000FFFFFFFEFE070000B7
:101B3000FFFF0F80FFFF0F00041C283CA5402C1C5A
:101B4000002570E600F01EFD203060E6283B9E4038
:101B5000B24600262DE600F015FD203019E61C42A5
:101B600006D11C432603340B5F462E1C2E4A8DE7FC
:101B70000B431803040B2C4A88E72C4F049D7B1B56
:101B8000382B06DD019E0127374000220024002665
:101B90007CE71F2B21DC049A254F351CD119201C12
:101BA0008E40DD408840321C2843561EB241061C40
:101BB0001643DC400F233340042B05D0371DB742BA
:101BC000B641714264183E1C250217D5019B0127BE
:101BD0001F4001220024002658E71648049A211CC1
:101BE000871AF9400D1C202B12D0134BD0188440BB
:101BF0002643721E96412E430024DBE7019A6507B7
:101C0000F6086002012717402E43040B00223DE72F
:101C10000024EDE780210F033C43019824030127B2
:101C2000240B0740004A31E7FF07000002FCFFFFDA
:101C30001E040000E2FBFFFF3E040000F0B5574623
:101C40004E464546E0B4071C0D034E00680ACC0F13
:101C5000790F08438446111C18035A00FD00400AFE
:101C6000DF0F4B0F1843C74BC900760D520D8A4644
:101C70009A4200D1DEE001235F40B946BC4200D168
:101C8000A6E0B71A002F00DC0BE1002A12D1524661
:101C9000024300D1D2E0013F002F00D05BE151466A
:101CA0006F1ABD42AD4162466B42101A3D1CC31A09
:101CB000371C24E0B34A964200D1DEE080210B04B9
:101CC0001843382F00DD1EE11F2F00DD60E12021C9
:101CD000C91B021C53468A40FB401A4353468B40A3
:101CE000191C4B1E9941031C0A43FB40AA1A674664
:101CF0009542AD41F81A6B42C31A151C371C1A02E3
:101D000000D4C2E05E02710A88464246002A00D131
:101D1000EBE0404600F036FC021C083A1F2A00DDCA
:101D2000ECE02823181A2E1C4146C6409140331C73
:101D30000B439540974200DDA4E0D01B411C1F29B6
:101D400000DD0DE11F273A1A2E1C181CCE409040D2
:101D5000954030436A1E9541CB4005430121002741
:101D60000F262E40042E00D170E02E1DAE42AD4154
:101D7000684201221B181440180207D5814FB9424E
:101D800000D1AEE0804D0F1C2B400131F208490517
:101D90005E073243DB08480D012800DC77E01B03B7
:101DA0007F051B0B7E0D002000210D0D101C290549
:101DB000764A0B4377057E081A40324353005D088C
:101DC000291CE40721431CBC90469946A246F0BD5D
:101DD000B31A002B00DCA3E0002A3BD0694A9642EC
:101DE0004BD080210F043843382B00DC14E15346DC
:101DF000184300270022002800D001225219AA42CD
:101E0000AD4167446B42FB18151C371C1E023CD5C4
:101E10005C487E1C864200D177E15B4901222A4062
:101E20000B406808151CD90705430D435B08B91C16
:101E3000371C95E7014300D11DE71EE7711C371CD5
:101E40000F2663462E40042E00D08EE70122144058
:101E50002E1C91E752460243F0D0013B002B09D1E2
:101E600057467919A9429241554260444319371C9B
:101E70000D1CCBE743498E42B6D180206346010159
:101E8000371C6DE7BF1A404A1340791C68E7151CE0
:101E90001D4300D120E2002F3ED0802631030B43AA
:101EA0007DE7002F00D085E0721C51054B0D012B02
:101EB00000DCEFE05746EA1B95429B416746391A22
:101EC0005B42C91A88460B0200D49CE05446651B4D
:101ED000AA459241C01B5742C31B9846371C4C462B
:101EE00013E70E1C002300225DE7281C00F04AFBCC
:101EF0002030021C083A1F2A00DC12E728388540EF
:101F00002B1C002516E757463843002300220028E3
:101F100000D1EBE60122E9E61803030B002642E7B5
:101F2000002B00D0D8E0771C79054A0D012A00DC8F
:101F300094E0144B9F4200D1FDE051464919A9425B
:101F4000AD4162466B428018C2184908D5070D435F
:101F50005308B11C04E70B498E4200D0B1E68CE770
:101F6000061C1F3E1F1CF7403E1C202972D03F223A
:101F7000101A83401D436B1E9D41354301210023F0
:101F80000027EDE6FF070000FFFF7FFFFFFF0F8048
:101F90003B1C203B011CD9400B1C202F5CD0402255
:101FA000D71BB840021C50460243511E8A411A43B7
:101FB00000239BE67F42002E40D0CA4CA24200D1B3
:101FC0001FE1802166460B041E43B446382F00DD16
:101FD000A9E01F2F00DD3DE12023DE1B291C644604
:101FE000B440F940B5406B1E9D41214363460D430B
:101FF000FB4057467D1BC01AAA459B415F42C31B4D
:102000004C46171C7BE60D1C154320D100240121F2
:10201000002304260027AFE61F2B4ADC2021C91A23
:10202000071C52468F40DA403A4357468F40391CCE
:102030004F1EB941D8400A43071CDFE664462C43D3
:1020400069D1511C031C5546171C4C4688E6151CCB
:10205000371C5AE600238DE70022A4E767462F438A
:10206000002E00D0D4E0002F00D126E153460343D8
:1020700000D1E4E051464F19AF42AD4160446E4299
:1020800083191E0200D44EE197483D1C03400221F3
:10209000012765E661462943002E29D1002976D122
:1020A00051460143B2D0031C55464C46012100273E
:1020B00056E61F1C203F011CF9400F1C202B00D1AD
:1020C000C6E04022D31A9840021C50460243531ED9
:1020D0009A413A43002791E65B42002E30D1674691
:1020E0002F4300D0C8E0511C031C5546171C37E68F
:1020F000002965D15746074300D1C8E0031C802062
:1021000055464C460101774F2AE68023371C1901BA
:102110000426002330E6013F002F6ED1544661466D
:10212000651B401A68E767463D430023002D00D138
:102130005FE701255DE780263101002304261BE6C9
:1021400068498A4200D1C1E08027664639040E43BF
:10215000B446382B00DDA2E01F2B00DDD0E02021AB
:10216000C91A2E1C67468F408D40DE403E43291C15
:1021700067464D1EA941DF40351C0D433E1C5544AA
:1021800055459B4130185E428319171C3EE6564662
:10219000064354D05746EA1B63469542B641191A86
:1021A0007342CB1A1E0200D4A2E07D1B6446AA45EE
:1021B000BF41001B7A42831A4C4601210027CFE51C
:1021C000564606433FD0624680215707ED08D308A4
:1021D0000A033D43134208D0C608164205D15546AE
:1021E000EC0845072543331C4C46680FDB0080266E
:1021F0000343ED0031013B4FB2E53A498A4200D03A
:10220000E4E68026031C55464C463101171CA7E521
:10221000002F4CD05346034315D062468026ED086C
:102220005107D30837030D433B42DED0C2083A4280
:10223000DBD15546E9084507131C0D43D5E7634636
:10224000012100278CE5802739016346254F87E56A
:1022500000223AE73C1C203C6646E640331C202F17
:102260005FD04024E71B6646BE40311C0D43691E0B
:102270008D411D430023BCE6013B002B22D1554478
:102280005545BF417B426044C318171CBEE5802101
:10229000042200240901154B5642124F6CE5634697
:1022A0001D430026002D00D169E7012567E7802244
:1022B000031C554611010B4F52E5031C55460121E5
:1022C00000274DE507498A4200D042E78021031CE0
:1022D00055460901171C43E57A05560D00230022D7
:1022E00061E5C046FF070000FFFF7FFFFFFF7F00A3
:1022F0001D1C154300D189E6151C012100272FE57F
:102300001F1C203F6146F940202B10D04026F31AB5
:1023100067469F403B1C1D436B1E9D410D4300269D
:102320002DE70021A2E73D1C0121002718E500232D
:10233000F1E7C046F8B5041E2DD0C50F00D04442C9
:10234000201C00F01FF916490A1A0A2816DD0B385E
:102350008440570526037A0D360B00270020002104
:10236000381C0F0D3B050F4C33431C4016053443FE
:1023700061004A08ED07111C2943F8BD0B26011C1A
:10238000301A1531231CC4408B40520521031F1CF9
:102390000E0B520DE2E70025002200260027DDE7A4
:1023A0001E040000FFFF0F80410070B50E0E731C6D
:1023B0004202C50FD8B2540A012815DD6307E02494
:1023C000A000120B341800200021181C0B0D1E0554
:1023D0001C4B324361054C08134023435A005608F6
:1023E000ED07311C294370BD002E16D1002C1ED0E4
:1023F000201C00F0C7F80A281DDC0B22111A021C51
:10240000231C1532CB4094401E1C231C34030E4E5B
:10241000220B301A41054C0DD5E7002C03D0630781
:10242000120B0A4CCFE7094C00220023CBE7002413
:1024300000220023C7E7011C0B398C40261C002317
:10244000E4E7C046FFFF0F8089030000FF0700009C
:10245000F0B5041C4800400D0B03CD0F411C620F6A
:102460005B0A4F051343E6007A0D012A35DD3E492C
:102470004218FE2A18DD80235900FF220423580148
:1024800005D5FF293FD0394F0A1C3B400131CCB262
:10249000DF08012C19DD79024F0AD2B2D2051743A9
:1024A000ED07381C2843F0BD002A2FDDA401770F6B
:1024B000611E8C41DB002E4E234381193B430F26C6
:1024C0001E40042EDBD00433D9E7002FE5D0002ACC
:1024D00016D08020C6033743DDE7002806D13343FA
:1024E0000121002B15D104230022C8E71E43C2D0CE
:1024F0008024DB00A004802603437100FF22DEE776
:102500007B025F0ACAE7FF220027C7E7173203DA18
:10251000012105230022B2E78022164F11040B434C
:102520003C1A1F2C0DDC1449321C4718BE40301CCD
:10253000BB40461EB041E240034313430121002249
:10254000BDE70E4A1F1C111ACF403A1C202C09D09F
:102550000B4C0019834033435E1EB34113430121EA
:102560000022ACE70023F6E780FCFFFFFFFFFFFB44
:1025700081FCFFFF9E03000082FCFFFF7E03000042
:10258000A2FCFFFF1C2101231B04984201D3000C75
:1025900010391B0A984201D3000A08391B099842D6
:1025A00001D30009043902A2105C40187047C046EC
:1025B000040302020101010100000000000000000C
:1025C00080B584B000AF78600F4BFB60FB687A6821
:1025D0009A60FB6800221A710C4BFA68DA610020DD
:1025E00000F064FA021CFB681A60FB681B68002B91
:1025F00004D1064B0022DA61002300E0FB68181CBE
:10260000BD4604B080BDC04624F0FF1F74F0FF1F1C
:1026100080B584B000AF78607B68FB60FB681B7995
:10262000002B07D1FB6801221A71FB681B68181C7C
:1026300000F0AAFA0023181CBD4604B080BDC046B5
:1026400080B584B000AF7860054BDB69FB60FB6848
:102650009B68181C00F006F8BD4604B080BDC0465B
:1026600074F0FF1F80B582B000AF786002F048F9C7
:10267000BD4602B080BDC04680B584B000AF786072
:102680003B4B9B68002B61D13A4BFB60FB687A683F
:10269000DA60FB6801221A72374BFA681A60374B0E
:1026A000364A526980210A435A61354B04225A65E1
:1026B000334B00221A60324B0022DA64304B002286
:1026C0005A602F4B0022DA602D4B00225A612C4BAE
:1026D0000022DA612A4B00225A62294B0022DA6278
:1026E000274B00225A63264B264A9A60244B2C2201
:1026F000DA62234B244A1A63204B204A1169234A89
:102700000A401A61FB68802252001A60FB680822A6
:102710005A601F4A1E49C4239B00CB589B009B084C
:102720008021C9051943C4239B00D150184B802236
:1027300012031A60164A80230021D150104B482200
:102740001A600B4BFA689A60FB680CE0084B9B68B8
:10275000FB60FB687A68DA60FB681B7A0133DAB2E7
:10276000FB681A72FB68181CBD4604B080BDC046E9
:1027700074F0FF1F30F0FF1F40F0FF1F0080044087
:1027800000A00340B70B0000DC050000FFFEFFFFC8
:1027900000E100E080B584B000AF78607B68FB604A
:1027A000074B074A12689821101C8843011CFA68DD
:1027B00052680A431A600023181CBD4604B080BD4D
:1027C00000A0034080B582B000AF7860054B054A99
:1027D000126898218A431A600023181CBD4602B073
:1027E00080BDC04600A0034080B584B000AF7860D3
:1027F00039600B4B9A683B1C0E331A803B1C0E331E
:102800003A1C0E32128801321A803B683A1C0E3292
:1028100012881A800023181CBD4604B080BDC04633
:1028200000A0034080B582B000AF7860034B002267
:102830005A600023181CBD4602B080BD00A00340B2
:1028400080B582B000AF7860FB1C19703B1C1A8009
:10285000FB1C1B78002B01D0822313E0FB1C1B7890
:102860000A4AD35C002B01D009230BE00849FB1C6A
:102870001B78084AD35C3A1C12880133DB00CB1862
:102880009A600023181CBD4602B080BDBC840000C5
:1028900000A00340B884000080B582B000AF134BA5
:1028A0001B683B6000237B60114B1A688023134038
:1028B00004D07B688022520013437B603B681A6817
:1028C0007B6813407B607A6880235B0013400AD0EA
:1028D000074B074A126880218A431A603B68DB680D
:1028E000181C00F015FABD4602B080BD40F0FF1F75
:1028F00000A0034080B584B000AF7860214BFB603E
:10290000FB687A689A60204BFA681A601F4B1F4A6E
:10291000526940210A435A611D4B00221A601C4B28
:1029200000225A601A4B0022DA60194B00225A61C9
:10293000174B184A9A60FB68802252001A60FB68A5
:1029400008225A60144A1449C4239B00C958134BE7
:102950000B408021C9031943C4239B00D1500E4B67
:102960008022D2021A600C4A80230021D150084BE9
:1029700045221A600A4BFA681A60FB68181CBD46AB
:1029800004B080BD44F0FF1F50F0FF1F00800440E2
:1029900000900340FFFF000000E100E0FFFF3FFF69
:1029A00074F0FF1F80B584B000AF78607B68FB6077
:1029B000074B074A12689821101C8843011CFA68CB
:1029C00052680A431A600023181CBD4604B080BD3B
:1029D0000090034080B582B000AF7860054B054A97
:1029E000126898218A431A600023181CBD4602B061
:1029F00080BDC0460090034080B582B000AF7860D3
:102A000039603A68094B9A4202D83B68012B01D1E0
:102A1000982307E0064B3A68013A3A603A6892B266
:102A20009A600023181CBD4602B080BDFFFF000065
:102A30000090034080B582B000AF7860034B002265
:102A40005A600023181CBD4602B080BD00900340B0
:102A500080B582B000AF134B1B683B6000237B60E6
:102A6000114B1A688023134004D07B6880225200E7
:102A700013437B603B681A687B6813407B607A680D
:102A800080235B0013400AD0074B074A126880215D
:102A90008A431A603B689B68181C01F057FEBD46CC
:102AA00002B080BD50F0FF1F0090034080B584B09D
:102AB00000AF78602C4B5B68002B43D12B4BFB6045
:102AC000FB687A68DA60FB6801221A72284BFA68A0
:102AD0001A60284B274A526920210A435A61264B23
:102AE00000221A60244B00225A60234B0022DA6035
:102AF000214B00225A61204B204A9A60FB688022B9
:102B000052001A60FB6808225A601D4A1C49C423FF
:102B10009B00C9581B4B0B40802109021943C42359
:102B20009B00D150164B802292021A60144A8023D7
:102B30000021D150104B40221A600B4BFA685A60AA
:102B4000FB680CE0084B5B68FB60FB687A68DA6046
:102B5000FB681B7A0133DAB2FB681A72FB68181C37
:102B6000BD4604B080BDC04674F0FF1F54F0FF1F87
:102B700064F0FF1F00800440008003405F090000F4
:102B800000E100E0FF3FFFFF80B584B000AF786058
:102B90007B68FB60074B074A12689821101C88432A
:102BA000011CFA6852680A431A600023181CBD46CB
:102BB00004B080BD0080034080B582B000AF134BED
:102BC0001B683B6000237B60114B1A688023134015
:102BD00004D07B688022520013437B603B681A68F4
:102BE0007B6813407B607A6880235B0013400AD0C7
:102BF000074B074A126880218A431A603B68DB68EA
:102C0000181CFFF71DFDBD4602B080BD64F0FF1F1C
:102C10000080034080B584B000AF7860104BFB604B
:102C2000FB687A689A60FB6801221A71FB680D4A9A
:102C3000DA800D4BFA681A620020FFF71DFD021CB6
:102C4000FB681A60FB681B68002B04D1064B00224E
:102C50001A62002300E0FB68181CBD4604B080BD6A
:102C600068F0FF1FF67F000074F0FF1F80B584B08E
:102C700000AF78607B68FB60FB681B79002B07D195
:102C8000FB6801221A71FB681B68181CFFF782FDA4
:102C90000023181CBD4604B080BDC04680B584B07A
:102CA00000AF78607B68FB60FB681B79002B12D05B
:102CB000FB6800221A71FB681B68181CFFF782FD75
:102CC000FB681B68181CFFF7ADFD054B044A526DED
:102CD00002210A435A650023181CBD4604B080BD7A
:102CE00000A0034080B584B000AF78600A1CBB1C14
:102CF0001A807B68FB60FB68BA1C1288DA807B68EC
:102D0000181C00F017F80023181CBD4604B080BD45
:102D100080B584B000AF7860054B1B6AFB60FB6830
:102D20009B68181C00F03AF8BD4604B080BDC04650
:102D300074F0FF1F80B586B000AF78607B683B61A0
:102D40003B691A683B1C0E33101C191CFFF74CFD25
:102D50003B1C0E331B88002B05D13B1C16333A69F4
:102D6000D2881A800CE03B1C0E331B883A69D2884B
:102D70005343802212029B181A0C3B1C16331A80F4
:102D80003B691A683B1C16331B88101C00211A1C57
:102D9000FFF756FDBD4606B080BDC04680B582B087
:102DA00000AF786001F00EFDBD4602B080BDC046A8
:102DB00080B584B000AF78602A4BFB60FB687A680E
:102DC0009A61FB6820221A70FB6810229A71FB68D6
:102DD00001229A70FB6800225A81FB6800221A8146
:102DE000FB6800225A82FB6800221A82FB680022DC
:102DF0005A70FB6800229A801B4B1B4A5269802143
:102E000089020A435A61194B00229A70174B5022CB
:102E10009A71164B0222DA70134B134A1169144A45
:102E20000A401A61114B00225A71104B00229A710C
:102E30000E4B08221A720D4B99225A700B4B0B4AFB
:102E40009278D2B2D2B2802149420A43D2B2D2B2EF
:102E50009A70084BFA681A63FB68181CBD4604B0E8
:102E600080BDC046ACF0FF1F0080044000700640EB
:102E7000FFFBFFFF74F0FF1F80B584B000AFF86068
:102E8000B9607A60BA680D4B9A4201D9892311E082
:102E9000BA687B68D318BB60BA6880239B029A42E9
:102EA00001D9842306E0FB685B78022B01D9082353
:102EB00000E00023181CBD4604B080BDFFFF0100E8
:102EC00080B584B000AF78601B4BFB60FB687A680C
:102ED0005A611A4BFA681A60194BFA685A63FB6810
:102EE00002225A70FB6800221A70FB6800221A74D2
:102EF000144B144A5269802149010A435A61124B0A
:102F00001322DA70114A1149C1239B00C958104B92
:102F10000B408021C9011943C1239B00D1500B4BA9
:102F200020221A60094A80230021D150FB68181C16
:102F3000BD4604B080BDC046C8F0FF1FE0F0FF1FD3
:102F400074F0FF1F008004400000024000E100E038
:102F5000FF3FFFFF90B587B000AFF860B9607A60BF
:102F60003B60FB687B613C1C12347969BA683B6842
:102F7000081C111C1A1CFFF77FFF031C23803B1C3D
:102F800012331B88002B03D03B1C12331B880FE02D
:102F90007B6901221A707B6904225A707B69BA68C6
:102FA0005A607A687B699A607B693A68DA600023C4
:102FB000181CBD4607B090BD90B587B000AFF86053
:102FC000B9607A603B60FB687B613C1C12347969B4
:102FD0007A683B68081C111C1A1CFFF74DFF031C84
:102FE00023803B1C12331B88002B03D03B1C123365
:102FF0001B881EE0114B00225A70104B06225A7299
:103000007B6902221A707B6904225A70BA687B6954
:103010009A607B697A685A607B693A68DA60074B24
:10302000064AD279D2B2802149420A43D2B2DA7139
:103030000023181CBD4607B090BDC04600000240EA
:1030400090B587B000AFF860B9607A60FB687B61CB
:103050003C1C12347969BA687B68081C111C1A1C64
:10306000FFF70AFF031C23803B1C12331B88002B35
:1030700003D03B1C12331B881FE07B6903221A70AC
:103080007B6904225A707B697A68DA60BB68032224
:10309000191C91430A1C7B695A600A4B00225A7022
:1030A000084B0A225A72074B064AD279D2B28021C3
:1030B00049420A43D2B2DA710023181CBD4607B058
:1030C00090BDC0460000024080B584B000AF78607B
:1030D00039607B68FB603B1C0B33EFF3108072B6EA
:1030E00018701A4B1B78DBB20133DBB2174A191C7C
:1030F0001170012B04D13B1C0B331A78144B1A703E
:10310000FB681A783B681A70FB681A7C3B689A70F7
:10311000FB685A683B685A60FB689B681A1C3B68EE
:103120009A60FB68DA683B68DA60084B1B78DBB2B0
:10313000013BDBB2054A191C1170002B03D1044B73
:10314000187880F31088BD4604B080BDB4F1FF1F2D
:10315000B9F3FF1F80B590B000AF78607B68FB6269
:10316000FB6A5B78042B0DD1A54B30225A713B1CB6
:10317000333300221A70FB6A00221A74FB6A05229C
:103180005A7018E0FB6A1B78012B04D13B1C3333C7
:1031900000221A700FE0FB6A1B7CDAB2984B5B7955
:1031A000DBB2DBB2191C33230B40DBB21343DAB2C0
:1031B0003B1C33331A703B1C33331B78002B10D06D
:1031C000FB6A00225A708E4B8D4AD279D1B27F228F
:1031D0000A40D2B2DA71FB6A5B69181C00F086FA09
:1031E0000AE1FB6ADB68002B10DCFB6A02225A70E2
:1031F000834B834AD279D1B27F220A40D2B2DA71AC
:10320000FB6A5B69181C00F03FFAF5E0FB6A1B786B
:10321000022B06D0032B00D196E0012B00D1CCE08D
:10322000D1E00223FB63764B00225A70744AFB6A9A
:103230005B681B0CDBB21372714B01225A70704A2F
:10324000FB6A5B681B0ADBB253726D4AFB6A5B6800
:10325000DBB203218B43DBB213726DE0FB6A5B6868
:10326000032293437B630023BB6327E0FB6A5A6816
:103270007B6B9A4203D8FB6ADB68002B0AD17B6B1D
:103280001A78391C2431BB6BCB181A707B6B013355
:103290007B6310E0FB6A9B681A1C1178381C243091
:1032A000BA6B821811705A1CFB6A9A60FB6ADB6861
:1032B0005A1EFB6ADA60BB6B0133BB63BB6B032B2B
:1032C000D4D9FB6A5B68032293437B637B6B1B68E7
:1032D000DA433B1C24331B68134007D0FB6A1B7C7A
:1032E00004221343DAB2FB6A1A7485E07B6B1A1D61
:1032F000FB6A5A60424BFA6BD2B25A70FB6B0133D5
:10330000FB633F4B3A1C243212781A723C4B3A1C36
:10331000243252785A723A4BFA6BD2B25A70FB6B23
:103320000133FB63364B3A1C243292781A72344BC9
:103330003A1C2432D2785A72FB6ADB68002B46D0E2
:10334000FB6B052B8AD942E02D4B00225A702C4A88
:10335000FB6A5B681B0CDBB21372294B01225A70AB
:10336000274AFB6A5B681B0ADBB25372244AFB6A7A
:103370005B68DBB21372FB6A5B68802189005A18B4
:10338000FB6A5A60FB6ADB681E495A18FB6ADA60FE
:103390001EE0FB6A9A68111CFB6A5B68181C0078C7
:1033A0000870511CFA6A91605A1CFB6A5A60FB6AE9
:1033B000DB685A1EFB6ADA6000E0C046FB6ADB6825
:1033C000002BE6D118E0FB6A0022DA6000E0C0467C
:1033D0003B1C0833013301229343BB620A4BBA6A98
:1033E000111C1A1C1C23081C111C1A1C03F0B6FF0C
:1033F000BB6A012213439847BD4610B080BDC0464A
:103400000000024000FEFFFFC084000080B582B0D3
:1034100000AF054B1B687B607B68181CFFF79AFEAA
:10342000BD4602B080BDC046E0F0FF1F80B500AFD2
:103430000020FFF7BDFC021C014B1A60BD4680BD99
:10344000D4F1FF1F90B587B000AFF860B9607A6023
:103450001F4B1B78002B01D0082334E01D4B0122A9
:103460001A601B4B01221A701B4B18683C1C163447
:10347000F968BA687B68FFF76DFD031C23803B1C6D
:1034800016331B88002B0ED1134B1B68181CFFF73B
:1034900061FE0F4B1B78002BF6D1104B1A783B1CAA
:1034A00016331A800BE03B1C16331B88892B06D180
:1034B000074B00221A703B1C163302221A803B1C59
:1034C00016331B88DBB2181CBD4607B090BDC04642
:1034D000E9F0FF1FE4F0FF1FECF0FF1FE8F0FF1F13
:1034E00090B587B000AFF860B960BB1D1A801D4B66
:1034F0001B78002B01D0082330E01B4B05221A60FB
:10350000184B01221A70194B1868BB1D1B883C1CF4
:103510001634F968BA68FFF74FFD031C23803B1C83
:1035200016331B88002B09D10E4B1B78002BFBD1C7
:103530000F4B1A783B1C16331A800BE0094B002204
:103540001A703B1C16331B88892B03D13B1C163386
:1035500002221A803B1C16331B88DBB2181CBD46A6
:1035600007B090BDE9F0FF1FE4F0FF1FECF0FF1F74
:10357000E8F0FF1F80B500AF0020FFF7A1FC021CA0
:10358000064B1A60064B00221A70064B00221A7076
:10359000054B01221A70BD4680BDC046ECF0FF1FEE
:1035A000F0F0FF1FE9F0FF1FEAF0FF1F90B585B0B4
:1035B00000AF78601D4B1B78002B01D0082330E052
:1035C0001B4B02221A60194B01221A70194B1A6800
:1035D0003C1C0E347B68101C191C0122FFF730FDC7
:1035E000031C23803B1C0E331B88002B09D10F4B7F
:1035F0001B78002BFBD1104B1A783B1C0E331A8022
:103600000BE00A4B00221A703B1C0E331B88892BDF
:1036100003D13B1C0E3302221A803B1C0E331B8845
:10362000DBB2181CBD4605B090BDC046E9F0FF1FD7
:10363000E4F0FF1FECF0FF1FE8F0FF1F80B582B041
:1036400000AF78600A1CFB1C1A70FA1C7B68101C07
:10365000191C0122FFF744FF031C181CBD4602B0D1
:1036600080BDC04680B582B000AF786039607A68AE
:103670003B68101C191C0122FFF7E4FE031C181CF8
:10368000BD4602B080BDC04680B582B000AF786054
:10369000114B00221A70114B1B68052B08D1104BDF
:1036A00000221A70C0460F4B1B78012B10D103E08B
:1036B0000B4B00221A700BE00B4B1B78012B05D132
:1036C000094B00221A7001F0A9F901E001F0AAF9F2
:1036D000BD4602B080BDC046E8F0FF1FE4F0FF1F0A
:1036E000E9F0FF1FEAF0FF1FF0F0FF1F80B586B082
:1036F00000AF78600F4B00221A700F4B00221A6047
:103700000E4B1A683B1C0833101C191CFFF7DCFC1D
:103710003B1C08339B781A1C1023134003D0084B22
:1037200016221A7002E0064B03221A70BD4606B03C
:1037300080BDC046E9F0FF1FE4F0FF1FECF0FF1F63
:10374000E8F0FF1F80B584B000AF78600C4BFB60E1
:10375000FB687A681A600B4B0A4A126824218A4374
:103760001A60084B074A526924210A435A61064BE2
:10377000FA685A61FB68181CBD4604B080BDC0469B
:10378000F4F0FF1F80F00F4074F0FF1F80B584B08D
:1037900000AFF860B9607A60BB68002B02D0012BE3
:1037A0000ED01BE00F4B0F4A12680421101C8843F7
:1037B000011C7A689000042202400A431A600EE05D
:1037C000084B084A12682021101C8843011C7A68A3
:1037D0005001202202400A431A6000E0C046BD4664
:1037E00004B080BD80F00F4080B584B000AF786039
:1037F0000C4BFB60FB687A681A600B4B0A4A116835
:103800000A4A0A401A60084B074A526908490A43A3
:103810005A61084BFA681A61FB68181CBD4604B06F
:1038200080BDC046F8F0FF1F40F00F40DFFFFFE70C
:103830002000001874F0FF1F80B584B000AFF8605E
:10384000B9607A60BB68012B10D002D3022B1AD06A
:1038500027E0164B154A1168154A11407A6810077F
:103860008022520502400A431A601BE00F4B0F4AA8
:103870001168104A11407A68D00680221205024071
:103880000A431A600EE0094B084A12682021101CF6
:103890008843011C7A685001202202400A431A60C2
:1038A00000E0C046BD4604B080BDC04640F00F40B9
:1038B000FFFFFFEFFFFFFFF780B584B000AF786038
:1038C000104BFB60FB687A681A600F4B0E4A116858
:1038D0000E4A0A401A600C4B0B4A91690C4A0A4086
:1038E0009A61094B084A51690A4A0A400A490A433F
:1038F0005A610A4BFA68DA60FB68181CBD4604B0CE
:1039000080BDC046FCF0FF1F00F00F40FFDFF93F15
:10391000FDFFFEFFFDDFF83F002006C074F0FF1F33
:1039200080B584B000AFF860B9607A60BB68062BE0
:103930005ED8BB689A00304BD3181B689F462F4B4C
:103940002E4A11682E4A11407A6850038022920153
:1039500002400A431A604CE0284B284A1168294A61
:1039600011407A6890048022D20202400A431A6011
:103970003FE0224B214A1268520051087A68D20770
:103980000A431A6035E01D4B1C4A11681E4A11405B
:103990007A6890078022D20502400A431A6028E024
:1039A000164B164A1168194A11407A685004802251
:1039B000920202400A431A601BE0104B0F4A126841
:1039C0000221101C8843011C7A6850000222024028
:1039D0000A431A600DE0094B084A11680C4A11406D
:1039E0007A6810048022520202400A431A6000E002
:1039F000C046BD4604B080BDD884000000F00F4032
:103A0000FFDFFFFFFFFFFBFFFFFFFFBFFFFFFDFF2C
:103A1000FFFFFEFF80B500AF0020FFF74DFF002045
:103A2000FFF7E2FE0020FFF78DFE0020FEF7C8FD45
:103A30000020FFF7EFF8002000F0E0F8002000F091
:103A400057F8002000F006F8FFF7F0FCFFF792FDB2
:103A5000BD4680BD80B584B000AF78600F4BFB6081
:103A6000FB687A681A600E4B0D4A51690D4A0A408C
:103A70005A610B4B0A4A91690A4A0A409A61084BFB
:103A8000074A1168074A0A401A60074BFA68DA6267
:103A9000FB68181CBD4604B080BDC04600F1FF1F86
:103AA00000F00F40FFFFFFDF74F0FF1F80B584B010
:103AB00000AF78600D4B5A6980239B05134006D1F7
:103AC0000A4B1A6980239B051340FB6005E0074BF6
:103AD0001A6880239B051340FB60FB685A1E9341C4
:103AE000DBB2181CBD4604B080BDC04600F00F40DC
:103AF00080B584B000AF78600F4BFB60FB687A68DC
:103B00001A600E4B0D4A526940218A435A610B4B91
:103B10000A4A926940218A439A61084B074A12680F
:103B200040218A431A60064BFA689A62FB68181CA7
:103B3000BD4604B080BDC04604F1FF1F80F00F40B9
:103B400074F0FF1F80B582B000AF7860074B074A62
:103B5000526940218A435A61044B044A92694021C8
:103B60008A439A61BD4602B080BDC04680F00F40D6
:103B700080B582B000AF7860044B044A526940219E
:103B80000A435A61BD4602B080BDC04680F00F4076
:103B900080B584B000AF78600B4B5A694023134066
:103BA00005D1094B1A6940231340FB6004E0064B22
:103BB0001A6840231340FB60FB685A1E9341DBB236
:103BC000181CBD4604B080BD80F00F4080B582B0A7
:103BD00000AF7860024B40229A60BD4602B080BDC3
:103BE00080F00F4080B582B000AF7860024B402279
:103BF0005A60BD4602B080BD80F00F4080B584B0F1
:103C000000AF78600C4BFB60FB687A681A600B4B66
:103C10000A4A5269802189040A435A61074B074ABC
:103C20001168074A0A401A60064BFA685A62FB6834
:103C3000181CBD4604B080BD08F1FF1F00F00F4006
:103C4000FFFFFFFD74F0FF1F90B583B000AF7860F9
:103C5000124BDB79DBB21C1C7B681B89002B1AD052
:103C60007B685B68E2B21A705A1C7B685A607B689A
:103C70005B8801339AB27B685A807B685A887B687C
:103C80001B899A4207D17B6800221A817B685B6995
:103C9000181C00F0B3FEBD4603B090BD00A0064066
:103CA00080B582B000AF78607B685A897B681B8AD8
:103CB0009A421CD2194A7B68DB681978D1715A1C68
:103CC0007B68DA607B685B8901339AB27B685A81D2
:103CD0007B685A897B681B8A9A421CD17B680022C8
:103CE0001A827B685B69181C00F090FE13E00B4B96
:103CF0000A4AD278D1B27F220A40D2B2DA70074B98
:103D0000064A9279D2B29A717B681B88012293434A
:103D10009AB27B681A80BD4602B080BD00A0064002
:103D200090B583B000AF154B1B687B60144B1B79BB
:103D3000DBB21C1C221C0F23134006D0104BDB7976
:103D40002023221C9A43131C9CB2221C20231340C4
:103D500003D07B68181CFFF777FF7B681B881A1C51
:103D60000123134007D0221C8023134003D07B681B
:103D7000181CFFF795FFBD4603B090BD0CF1FF1F67
:103D800000A0064080B500AF054A064BD31A054A8D
:103D9000101C00211A1C03F0EAFABD4680BDC04683
:103DA000BCF3FF1F24F0FF1F04F012FB03F0F4F834
:103DB000FFF7E8FF04F0E4FA04F080FA04F016FBE1
:103DC000044B0020191C00F0EFFB031C181C03F02F
:103DD000A9FAC04610F1FF1F80B582B000AF78602D
:103DE000FEE7C04680B500AF194B194A52698021E1
:103DF00049030A435A61164B154AD26880218A4307
:103E0000DA60134B124A5168124A0A405A60124B48
:103E1000114AD278D2B20C218A43D2B2DA700E4B58
:103E200000229A700C4B00229A710B4B00225A719F
:103E3000094B00221A70084B03225A70064B064A9F
:103E4000D278D2B20C210A43D2B2DA70BD4680BD1C
:103E500000800440FFFCFFFF00A0064080B584B056
:103E600000AF78600A1CFB1C1A703B1C0F33002249
:103E70001A703B1C0F3300221A7016E0C046104B1C
:103E80001B79DBB2DBB25BB2002BF8DA0C4B3A1CCD
:103E90000F32127879688A181278DA713B1C0F3366
:103EA0003A1C0F32127801321A703A1C0F32FB1C86
:103EB00012781B789A42E1D3C046BD4604B080BD5B
:103EC00000A0064080B500AF00F00CF800F02AF822
:103ED00000F064F800F00EF800F03EF800F072F820
:103EE000BD4680BD80B500AF00F010F8C046BD46AD
:103EF00080BDC04680B500AF034BDB69181CFEF7E0
:103F000087FBBD4680BDC04674F0FF1F80B500AF83
:103F1000034B034A126820210A431A60BD4680BD44
:103F20000080034080B500AF0020FEF7E3FC021CD8
:103F3000024B1A6000F01CF8BD4680BD14F1FF1F53
:103F400080B500AF034B1B68181CFEF72BFDBD4668
:103F500080BDC04614F1FF1F80B500AF034B1B6846
:103F6000181CFEF737FDBD4680BDC04614F1FF1F8B
:103F700080B500AF034B034A126820210A431A6040
:103F8000BD4680BD0090034080B500AF024B2822A3
:103F9000DA62BD4680BDC04600A0034080B500AFD8
:103FA000FFF7F2FFC046BD4680BDC04680B500AFFA
:103FB000034B1B6A181CFEF759FEBD4680BDC04668
:103FC00074F0FF1F80B500AF034B1B6A181CFEF78F
:103FD00065FEBD4680BDC04674F0FF1F80B500AFD2
:103FE00000F022F8BD4680BD80B582B000AF021C53
:103FF000BB1D1A80BB1D1A8880231B029A420BD856
:10400000074B1A6ABB1D1B8806495B189BB2101C24
:10401000191CFEF767FE00E0C046BD4602B080BD39
:1040200074F0FF1FFF7F000080B500AF034B1B6AD9
:10403000181C0021FEF756FEBD4680BD74F0FF1F20
:1040400080B582B000AF7860FFF786FF084B1B6831
:10405000181CFEF7EFFC064B1A687B68101C191C35
:10406000FEF7CAFCFFF76CFFBD4602B080BDC0463C
:1040700014F1FF1F80B582B000AF7860FFF76CFFCE
:10408000084B1B68181CFEF7D5FC064B1A687B68AA
:10409000101C191CFEF7B0FCFFF752FFBD4602B022
:1040A00080BDC04614F1FF1F80B500AF064B064A25
:1040B000526980210A435A61044B044A5269102113
:1040C0000A435A61BD4680BD00F00F4040F00F40EA
:1040D00080B582B000AF021CFB1D1A70FB1D1B785F
:1040E000072B45D89A002A4BD3181B689F46294BAB
:1040F000284A926810210A439A60274B264A526840
:1041000080210A435A6040E0224B224AD2681021A3
:104110000A43DA60204B204A526880210A435A60E1
:1041200033E01C4B1B4A926810210A439A601A4BD9
:10413000194A926880210A439A6026E0154B154A75
:10414000526810210A435A60134B134A9268802127
:104150000A439A6019E00F4B0E4A526810210A4335
:104160005A600D4B0C4AD26880210A43DA600CE099
:10417000084B084A526810210A435A60064B064A07
:10418000526880210A435A60C046BD4602B080BDD5
:10419000F484000040F00F4000F00F4080B500AF05
:1041A000FFF744F9BD4680BD80B500AF0020FFF7A2
:1041B00083FB021C1C4B1A600020FFF715FB021C3E
:1041C0001A4B1A600020FFF7BDFA021C184B1A6048
:1041D000184B184A5269802149020A435A61164B0A
:1041E000154A526920210A435A61124B114A5269F9
:1041F000802189020A435A610E4B0E4A526980217E
:10420000C9050A435A610B4B0A4A52698021C90207
:104210000A435A61074B074A5269802109060A433B
:104220005A61BD4680BDC04618F1FF1F1CF1FF1F3B
:1042300020F1FF1F00F00F4080F00F4080B584B0E8
:1042400000AFB9607A603B1C0F33021C1A703B1C34
:104250000F331B78012B0DD0022B15D0002B1DD155
:10426000104B1968BA687B68081C111C1A1CFFF7F0
:1042700057FB14E00C4B1968BA687B68081C111CCA
:104280001A1CFFF7D9FA0AE0084B1968BA687B686C
:10429000081C111C1A1CFFF779FA00E0C046BD4645
:1042A00004B080BD18F1FF1F1CF1FF1F20F1FF1F9C
:1042B00080B500AFFFF75EF9BD4680BD80B582B026
:1042C00000AF78607A68064B9A4204D97B68181C64
:1042D000FFF76CF900E0C046BD4602B080BDC046A5
:1042E000FFFD010080B586B000AFF860B960FB1D2E
:1042F0001A703B1C173300221A70FA68144B9A424A
:1043000022D13B1C173300221A7015E03B1C1733D7
:104310001A78FB68D2183B1C17331B78B968CB1886
:104320001B78101C191CFFF789F93B1C17333A1C2A
:104330001732127801321A703A1C1732FB1D1278AC
:104340001B789A42E2D300E0C046BD4606B080BD6D
:10435000F0FF010080B586B000AFF860B960FB1DCA
:104360001A703B1C173300221A70FA68144B9A42D9
:1043700021D13B1C173300221A7014E03B1C173369
:104380001A78FB68D2183B1C17331B78B968CB1816
:10439000101C191CFFF766F93B1C17333A1C173227
:1043A000127801321A703A1C1732FB1D12781B78F2
:1043B0009A42E3D300E0C046BD4606B080BDC04689
:1043C000F0FF010080B582B000AFFB1D00221A7023
:1043D0001DE0134B5B79DBB2DBB25BB2002B1BDA67
:1043E0000F4BDB78DBB21A1C40231340FA1DF91D7A
:1043F00009781170002B0AD1094B094AD278D2B240
:104400003F218A43D2B2DA70FB1D01221A70FB1DD4
:104410001B78002BDDD000E0C046BD4602B080BD59
:104420000000024080B500AF0C4B0C4A526980215D
:1044300089050A435A610A4B00221A60084B292257
:104440009A60074B00225A60054B054A9269E321A6
:1044500089010A439A61BD4680BDC0460080044080
:1044600000B0034080B584B000AF021CFB1D1A7081
:104470003A1C08320E4B111C1A1C0623081C111C76
:104480001A1C02F06BFF0B4BFA1D1278391C083115
:104490008A5C1A60C046074B1A6880231340FAD022
:1044A000044B1B699BB2181CBD4604B080BDC046BE
:1044B000F083000000B0034080B500AFFFF774FE4A
:1044C000FFF7F2FDFFF7AEFFFFF7FCFCFFF786FDFD
:1044D000FFF788FCFFF762FE02F046F8BD4680BD9C
:1044E00080B584B000AF78603B1C083300221A60AE
:1044F00000229A803B1C0F3300221A703B1C0E33A3
:1045000000221A70FFF7D4FE264A3B1C0833101C09
:10451000191C0622FFF71EFF3B1C0F3300221A70E6
:1045200024E03B1C0F331B783A1C0832D25C3B1C46
:104530000F331B787968CB181B789A420FD03B1C3D
:104540000F331B783A1C0F32127879688A18117869
:104550003A1C0832D1543B1C0E3301221A703B1C0A
:104560000F333A1C0F32127801321A703B1C0F3392
:104570001B78052BD5D93B1C0E331B78012B0CD196
:10458000FF235B02181CFFF799FE064A3B1C083309
:10459000101C191C0622FFF7A5FEFFF713FFBD46EE
:1045A00004B080BDF0FF010090B587B000AF3B1CA8
:1045B0000F3300221A705C4B5C4A1A6002F014FD43
:1045C0005B4B181CFFF78CFFFFF776FF00237B6126
:1045D00000233B6100237B610CE000233B6102E090
:1045E0003B6901333B613A69524B9A42F8D97B6986
:1045F00001337B617A69504B9A42EED93B1D6522AB
:104600001A703B1D6E225A703B1D74229A703B1D1E
:104610006522DA703B1D72221A713B1D64225A71A9
:104620003B1D72229A713B1D7622DA713B1D2022BE
:104630001A723B1D00225A723B1D181C0A21FFF7FB
:104640000DFC3E4B02221A703C4B1B783C1C0F3475
:10465000181C02F0D7F8031C2370394B3A1C0F3298
:1046600012781A70354B1A783C1C0F343B1C0F33F0
:104670001B78101C191C02F06BFA031C23703B1CE6
:104680000F331B78002B04D03B1C0F331B78012BFE
:1046900010D12A4B1B78181C00F05EFD031C1A1C5D
:1046A000284B1A70254B1B78052B1FD9264B00224F
:1046B0001A701BE0234B0B221A70204B1B78012B26
:1046C00014D93B1C0F331B78062B0FD03B1C0F3328
:1046D0001B78052B0AD03B1C0F331B78012B05D010
:1046E000194B1B780133DAB2174B1A70134B197838
:1046F000144B1A783B1C0F331B78081C111C1A1C16
:1047000000F0F4FD031C1A1C0C4B1A700E4B1B78A6
:10471000042B02D9094B00221A70084B1B78181C75
:1047200000F0D6FF90E7C0466CF1FF1FD8F1FF1FE5
:1047300014850000CF070000E703000024F1FF1FED
:10474000A0F1FF1F25F1FF1F26F1FF1F80B582B0EA
:1047500000AF7860FFF700FC154B1B78012B24D1CC
:10476000144B1B780133DAB2124B1A70114B1B78C1
:10477000172B02D90F4B00221A700E4B1A780E4BD2
:104780005B78101C191C01F05BF90C4B02221A809B
:104790000B4B1B78002B05D0094B1B78013BDAB281
:1047A000074B1A70024B00221A70BD4602B080BD42
:1047B00082F1FF1FB8F3FF1F38F3FF1F04F0FF1F44
:1047C00070F1FF1F80B582B000AF00237B603D4BCE
:1047D0001B683D495A183B4B1A603C4B1B88002B09
:1047E00060D13B4B1B78012B5CD13A4B1B78002BE3
:1047F00058D1394B1B78002B08D0384B1B68002B45
:1048000004D1374B1B685A1C354B1A60354B1B784B
:10481000181C0621FBF754FE0B1CDBB2181C01F020
:10482000B7F9031C012B31D12F4B00221A702C4BEE
:1048300000221A602D4B5A68224B1B68D2182C4B51
:104840001A60284B1B781A1C294B1968294B1B68C6
:10485000C91A294B9200D150254B1A68254B1A6072
:104860001D4B1B78002B11D01A4B01221A701D4BC7
:104870001B781A1C204B9200D358204A927853433D
:104880001B0B7B607B68181CFFF7DAFB144B1A6864
:10489000C8235B009A4205D9134B01221A70104BB2
:1048A00000221A60154B1B78002B01D001F08CFD03
:1048B000094B1B78002B02D1094B00221A60BD4620
:1048C00002B080BD68F1FF1FDC05000004F0FF1F8F
:1048D00081F1FF1F82F1FF1F80F1FF1F74F1FF1FA5
:1048E00028F1FF1FB8F3FF1F64F1FF1F00A0034072
:1048F0005CF1FF1F60F1FF1F58F3FF1F38F3FF1F2C
:1049000080B500AF334B5B689BB2181C01F0CEF84A
:10491000304B1B78002B01D101F056FD2E4B1B684C
:10492000002B04D02C4B1B685A1E2B4B1A602A4BB1
:104930001B68002B42D1284BFA2252001A60274BE9
:104940001B68002B04D0254B1B685A1E234B1A6092
:10495000234B1B68002B04D0214B1B685A1E204B95
:104960001A60204B1B68002B04D01E4B1B685A1E7C
:104970001C4B1A601C4B1B68002B04D01A4B1B6885
:104980005A1E194B1A60194B1B68002B04D0174B89
:104990001B685A1E154B1A60154B1B68002B04DD53
:1049A000134B1B685A1E124B1A60124B1B68002BCC
:1049B00004D0104B1B685A1E0E4B1A600E4B1B88FE
:1049C000002B05D00C4B1B88013B9AB20A4B1A8076
:1049D000BD4680BD38F3FF1F00F0FF1F58F1FF1FD9
:1049E00078F1FF1F7CF1FF1F98F1FF1F74F1FF1F8B
:1049F00094F1FF1F9CF1FF1F04F0FF1F80B582B0F0
:104A000000AF7860BD4602B080BDC04680B582B0C0
:104A100000AF7860BD4602B080BDC04680B500AF33
:104A2000BD4680BD80B500AFBD4680BD80B500AF3E
:104A3000C046BD4680BDC04680B500AF01F022F83B
:104A400001F018FEC046BD4680BDC04680B500AF2F
:104A5000C046BD4680BDC04680B500AF384B1B6820
:104A6000002B20D1374B1B78022B08D0032B02D010
:104A7000012B08D00BE0324B19221A6008E0304BB2
:104A80000F221A6004E02E4B0A221A6000E0C04692
:104A90002C4B1B78002B50D02A4B1B78013BDAB2F1
:104AA000284B1A7049E0274B1B78012B18D0022B9A
:104AB00002D0002B2AD03FE0214B1B681922D31AC9
:104AC000181CFCF7D7FC031C181C1F49FCF758F9ED
:104AD000031C181CFBF778FD021C1C4B5A602CE0D1
:104AE000174B1B680F22D31A181CFCF7C3FC031CBE
:104AF000181C1749FCF744F9031C181CFBF764FD4C
:104B0000031C14495A18114B5A6016E00C4B1B68D1
:104B10000A22D31A181CFCF7ADFC031C181C0E4902
:104B2000FCF72EF9031C181CFBF74EFD031C0B4968
:104B30005A18064B5A6000E0C046BD4680BDC046CC
:104B400058F1FF1F06F0FF1F66662A4338F3FF1F68
:104B5000ABAA2E42A41000000080234333130000B0
:104B600080B500AF744B1B78002B00D0E2E0734B94
:104B70001B78002B00D1DDE0704B1B780122D31A8B
:104B8000062B00D9CFE09A006D4BD3181B689F46C7
:104B9000694B01221A706B4B1A686B4B1A606B4B96
:104BA0001B686B495A18674B1A606A4B1B781A1CB2
:104BB000644B1968644B1B68C91A674B9200D1504B
:104BC000664B181CFFF756FAAEE05B4B01221A70D9
:104BD0005C4B1A685C4B1A605C4B1B6860495A1846
:104BE000584B1A605B4B1B781A1C564B1968564B76
:104BF0001B68C91A584B9200D1505A4B181CFFF72A
:104C000039FA91E04C4B01221A704E4B1A684E4B08
:104C10001A604E4B1B6854495A184A4B1A604D4B48
:104C20001B781A1C474B1968474B1B68C91A4A4B1B
:104C30009200D1504D4B181CFFF71CFA74E03E4B0C
:104C400001221A703F4B1A683F4B1A603F4B1B689A
:104C500047495A183B4B1A603E4B1B781A1C394B7C
:104C60001968394B1B68C91A3B4B9200D150414B14
:104C7000181CFFF7FFF957E02F4B01221A70314B38
:104C80001A68314B1A60314B1B683B495A182D4B3F
:104C90001A60304B1B781A1C2A4B19682A4B1B6868
:104CA000C91A2D4B9200D150344B181CFFF7E2F972
:104CB0003AE0214B01221A70224B1A68224B1A60EB
:104CC000224B1B682E495A181E4B1A60214B1B7829
:104CD0001A1C1C4B19681C4B1B68C91A1E4B9200EE
:104CE000D150284B181CFFF7C5F91DE0124B0122CB
:104CF0001A70144B1A68144B1A60144B1B68224923
:104D00005A18104B1A60134B1B781A1C0D4B19685C
:104D10000D4B1B68C91A104B9200D1501B4B181C2D
:104D2000FFF7A8F900E0C046044B1B78013BDAB25C
:104D3000024B1A70BD4680BD82F1FF1F07F0FF1FB6
:104D4000408500005CF1FF1F60F1FF1F68F1FF1F4D
:104D500082BB0000B8F3FF1F58F3FF1F701700005D
:104D6000F4C003001D7800009221030031640000AC
:104D70002F370200E54600003DBE0100C7370000A6
:104D8000FDB201005F3600004D990100293300009B
:104D900080B500AF2D4B1B78002B54D02C4B1B68DB
:104DA000002B51D12A4B01221A6000F0FFFF021C98
:104DB000284BDA60274BDA68274B9A4203D9254BF8
:104DC00005229A7040E0234BDA68244B9A420DD9B1
:104DD000204BDB68181C6421FBF72EFB031CDBB2A5
:104DE0002322D31ADAB21B4B9A702DE0194BDA68E2
:104DF000E123DB009A420DD9164BDB68181C0A210F
:104E0000FBF71AFB031CDBB20422D31ADAB2114BF4
:104E10009A7019E00F4BDA68FA239B009A420ED978
:104E20000C4BDB68181C1421FBF706FB031CDBB2E0
:104E300056225242D31ADAB2064B9A7004E0054B5E
:104E400078229A7000E0C046BD4680BD70F1FF1F19
:104E500078F1FF1F38F3FF1FB80B0000C4090000F2
:104E600080B582B000AF00237B60374B1B68002BFE
:104E70004FD1354B01221A6000F098FF021C334BD2
:104E8000DA60324BDA68324B9A4203D92F4B052253
:104E90009A703EE02D4BDA682E4B9A420DD92B4B7F
:104EA000DB68181C6421FBF7C7FA031CDBB2232262
:104EB000D31ADAB2254B9A702BE0244BDA68E1233F
:104EC000DB009A420DD9214BDB68181C0A21FBF745
:104ED000B3FA031CDBB20422D31ADAB21B4B9A706A
:104EE00017E01A4BDA68FA239B009A420ED9174B47
:104EF000DB68181C1421FBF79FFA031CDBB2562257
:104F00005242D31ADAB2114B9A7002E00F4B782258
:104F10009A70114B1B68002B12D10F4B02221A60A2
:104F20000A4BD968094B9A68084B5B68081C111C2E
:104F30001A1C00F065FF031C7B60044B7A685A6002
:104F4000BD4602B080BDC04678F1FF1F38F3FF1F99
:104F5000B80B0000C40900007CF1FF1F80B582B0CF
:104F600000AF00237B60374B1B68002B4FD1354BC4
:104F700001221A6000F01AFF021C334BDA60324B38
:104F8000DA68324B9A4203D92F4B05229A703EE0E1
:104F90002D4BDA682E4B9A420DD92B4BDB68181C2F
:104FA0006421FBF749FA031CDBB22322D31ADAB2DD
:104FB000254B9A702BE0244BDA68E123DB009A4200
:104FC0000DD9214BDB68181C0A21FBF735FA031CAD
:104FD000DBB20422D31ADAB21B4B9A7017E01A4BD9
:104FE000DA68FA239B009A420ED9174BDB68181C2B
:104FF0001421FBF721FA031CDBB256225242D31ACA
:10500000DAB2114B9A7002E00F4B78229A70114B72
:105010001B68002B12D10F4B02221A600A4BD96871
:10502000094B9A68084B5B68081C111C1A1C00F09D
:10503000E7FE031C7B60044B7A685A60BD4602B0F1
:1050400080BDC04678F1FF1F38F3FF1FB80B00008A
:10505000C40900007CF1FF1F80B582B000AF0023BF
:105060007B60384B64229A60374B1B68002B4FD112
:10507000354B01221A6000F099FE021C314BDA60B8
:10508000304BDA68314B9A4203D92E4B05229A7085
:105090003EE02C4BDA682E4B9A420DD9294BDB6847
:1050A000181C6421FBF7C8F9031CDBB22322D31AB6
:1050B000DAB2244B9A702BE0224BDA68E123DB0052
:1050C0009A420DD91F4BDB68181C0A21FBF7B4F973
:1050D000031CDBB20422D31ADAB21A4B9A7017E01F
:1050E000184BDA68FA239B009A420ED9154BDB68FD
:1050F000181C1421FBF7A0F9031CDBB25622524204
:10510000D31ADAB20F4B9A7002E00E4B78229A70E3
:10511000104B1B68002B12D10E4B02221A60094B58
:10512000D968084B9A68074B5B68081C111C1A1C4D
:1051300000F066FE031C7B60024B7A685A60BD4635
:1051400002B080BD38F3FF1F78F1FF1FB80B0000DD
:10515000C40900007CF1FF1F90B585B000AF021CB0
:10516000FB1D1A703B1C0F3300221A70FB1D1B78AD
:10517000082B00D98BE09A00504BD3181B689F4630
:105180004F4B1B68002B00D083E03B1C0F330C22DD
:105190001A707EE03B1C0F3300221A7086E001F08B
:1051A000D5F9021CFA235B009A4200D873E03B1C3D
:1051B0000F3301221A706EE0424B1B78002B00D097
:1051C0006BE0414B1B68002B00D066E03B1C0F33AB
:1051D00002221A7061E03D4B1B78002B5FD13C4BE3
:1051E0001B78002B5BD13B1C0F3303221A7056E057
:1051F000384B1B78002B54D13B1C0F3304221A7000
:105200004FE0354B1B78012B4DD1344BDC6801F05E
:105210009DF9031C913BFF3B9C4244D93B1C0F333F
:1052200006221A703FE02E4B1B68002B04D13B1C5A
:105230000F3308221A7039E0274B1B78012B0DD150
:10524000264BDC6801F082F9031C913BFF3B9C423A
:1052500004D93B1C0F3306221A7027E03B1C0F3386
:1052600007221A7022E01D4BDA681E4B9A421CD8A6
:105270001A4B5A781C4B9B789A4203D01A4B9A7857
:10528000164B5A703B1C0F330A221A700DE0C046B1
:105290000CE0C0460AE0C04608E0C04606E0C04652
:1052A00004E0C04602E0C04600E0C0463B1C0F33AD
:1052B0001B78181CBD4605B090BDC0465C8500003B
:1052C00098F1FF1F06F0FF1F58F1FF1F07F0FF1FA7
:1052D00082F1FF1F70F1FF1FA0F1FF1F38F3FF1FC6
:1052E00094F1FF1FE703000048F3FF1F90B585B05E
:1052F00000AFFB1D1870BB1D19707B1D1A703B1C85
:105300000F3300221A703B1C0E33FA1D12781A70EC
:10531000FB1D1B78082B00D983E19A00D04BD318D2
:105320001B689F46BB1D1B780C2B08D100F0AAFB05
:1053300001F0A0F93B1C0E3302221A7073E1BB1D71
:105340001B780B2B00D06EE13B1C0E3301221A7030
:1053500069E13B1C0E3300221A7073E1BB1D1B7800
:10536000012B2BD1BF4B00221A70BF4B00221A70A9
:10537000BE4B00221A70BE4B00221A60C046BD4BC5
:10538000181C01F007FD031C0133F8D0BA4B0022B2
:105390001A60BA4B00221A60B94B03221A7000F04F
:1053A00093FB00F079FBB74B01221A70B64B002239
:1053B0001A603B1C0E3303221A7036E1BB1D1B78AA
:1053C0000B2B00D031E13C1C0E34FB1D1A787B1DE9
:1053D0001B78101C191C01F03BFC031C237024E1FA
:1053E000BB1D1B78022B31D1A04B01221A703B1C34
:1053F0000F3300221A700DE03B1C0F331A78A34BB9
:105400009200A349D1503B1C0F333A1C0F32127843
:1054100001321A703B1C0F331B78172BECD99D4BB4
:1054200001221A709C4B00221A609C4B00221A60C9
:105430009B4B01221A708B4B03221A700120FEF73E
:1054400019FE3B1C0E3304221A70F0E0BB1D1B78C2
:105450000B2B00D0EBE03C1C0E34FB1D1A787B1D9F
:105460001B78101C191C01F0F3FB031C2370DEE0F9
:10547000BB1D1B78032B10D1824B78229A70894B6D
:105480001E221A60784B01221A70874BF0221A7084
:105490003B1C0E3305221A70CBE0BB1D1B780B2B77
:1054A00000D0C6E03C1C0E34FB1D1A787B1D1B7817
:1054B000101C191C01F0CCFB031C2370B9E0BB1DB0
:1054C0001B78042B0CD16F4B78229A7001F03EF8B8
:1054D000021C6C4B9A603B1C0E3306221A70AAE029
:1054E000BB1D1B780B2B00D0A5E03C1C0E34FB1D14
:1054F0001A787B1D1B78101C191C01F0A9FB031CDA
:10550000237098E0BB1D1B78092B04D13B1C0E3384
:1055100008221A7091E0BB1D1B78052B04D13B1C9F
:105520000E3306221A7088E0BB1D1B78062B07D1AC
:105530005E4B5F4A1A603B1C0E3307221A707CE0F8
:10554000BB1D1B780B2B00D077E03C1C0E34FB1DE1
:105550001A787B1D1B78101C191C01F079FB031CA9
:1055600023706AE0BB1D1B78062B04D13B1C0E3355
:1055700007221A7063E0BB1D1B78072B04D13B1C6C
:105580000E3306221A705AE0BB1D1B78082B08D177
:105590003B1C0E3308221A70444B012252421A60FF
:1055A0004DE0BB1D1B780B2B49D13C1C0E34FB1D61
:1055B0001A787B1D1B78101C191C01F049FB031C79
:1055C00023703CE0BB1D1B780A2B10D100F05AFA67
:1055D00001F050F83B1C0E3302221A70334B1B684B
:1055E00001332ED13B1C0E3300221A7029E0BB1D63
:1055F0001B78052B04D13B1C0E3306221A7020E0C9
:10560000BB1D1B780B2B1CD13C1C0E34FB1D1A78C8
:105610007B1D1B78101C191C01F01AFB031C237046
:105620000FE0C0460EE0C0460CE0C0460AE0C046AF
:1056300008E0C04606E0C04604E0C04602E0C046BE
:1056400000E0C046FB1D1B78012B38D0BB1D1B782A
:105650000B2B31D1174B7A1D12781A702FE0C046F0
:1056600080850000B8F3FF1F80F1FF1F81F1FF1F4D
:1056700058F1FF1FE4F1FF1F88F1FF1F8CF1FF1F9E
:1056800006F0FF1F38F3FF1F68F1FF1F58F3FF1FDD
:10569000FFFF000007F0FF1F5CF1FF1F60F1FF1F1D
:1056A00082F1FF1F74F1FF1F70F1FF1F94F1FF1FC4
:1056B000A08C00002CF1FF1F044B00221A703B1C31
:1056C0000E331B78181CBD4605B090BD2CF1FF1F92
:1056D00080B584B000AF021CFB1D1A703B1C0F3359
:1056E00000221A70FB1D1A781B4B9200D358984762
:1056F0001A4B1B68002B2CD1FB1D1B78082B1AD8CA
:105700009A00174BD3181B689F463B1C0F33FF2290
:105710001A7015E03B1C0F33124A12781A700FE012
:105720003B1C0F330F4A12781A7009E03B1C0F33F1
:1057300001221A7004E03B1C0F33FF221A70C0468E
:10574000064B0A221A603B1C0F331B78181CFEF70D
:10575000BFFCBD4604B080BD1C8500009CF1FF1F4E
:10576000A48500002CF1FF1F80B500AF154B154A32
:10577000926820210A439A60134B134A9268802151
:1057800089020A439A60104B0F4A92688021C9022D
:105790000A439A600C4B0C4A9268802109060A431E
:1057A0009A60094B084A5268802149020A435A60AC
:1057B000054B054A52688021C9050A435A60BD4617
:1057C00080BDC04680F00F4000F00F4080B500AFB4
:1057D000154B154A926820210A439A60134B134ACD
:1057E0009268802189020A439A60104B0F4A92689E
:1057F0008021C9050A439A600C4B0C4A92688021AB
:10580000C9020A439A60094B084A5268802149023A
:105810000A435A60054B054A5268802109060A432B
:105820005A60BD4680BDC04680F00F4000F00F407A
:1058300080B500AF154B154A9268802149020A4392
:105840009A60134B124A926820210A439A600F4BC8
:105850000E4A92688021C9050A439A600B4B0B4A95
:1058600092688021C9020A439A60084B074A52682D
:10587000802189020A435A60044B044A52688021FD
:1058800009060A435A60BD4680BDC04600F00F407D
:1058900080F00F4080B500AF154B154A926880210B
:1058A00049020A439A60124B114A92688021C90545
:1058B0000A439A600E4B0E4A92688021C9020A433D
:1058C0009A600B4B0A4A9268802109060A439A6043
:1058D000084B084A526820210A435A60044B044A84
:1058E0005268802189020A435A60BD4680BDC04685
:1058F00000F00F4080F00F4080B500AF154B154A07
:105900009268802149020A439A60124B114A9268B8
:10591000802189020A439A600E4B0E4A92688021C8
:10592000C9050A439A600B4B0A4A9268802109060E
:105930000A439A60084B084A526820210A435A6079
:10594000044B044A52688021C9020A435A60BD468A
:1059500080BDC04600F00F4080F00F4080B500AF22
:10596000154B154A9268802149020A439A60134BED
:10597000124A926820210A439A600F4B0E4A92689D
:10598000802189020A439A600B4B0B4A926880215E
:1059900009060A439A60084B074A52688021C905E4
:1059A0000A435A60044B044A52688021C9020A43E0
:1059B0005A60BD4680BDC04600F00F4080F00F40E9
:1059C00080B500AF012001210022FEF737FC0F2037
:1059D00000F0ACF8012001210122FEF72FFC034B5F
:1059E000181C00F0A3F8BD4680BDC046983A0000E0
:1059F00080B500AF012001210122FEF71FFC01202C
:105A000000210122FEF71AFC012002210122FEF7EB
:105A100015FCBD4680BDC04680B500AF0120012108
:105A20000022FEF70BFC012000210022FEF706FCFD
:105A3000012002210022FEF701FCBD4680BDC046C8
:105A400090B583B000AF0A1CFB1D011C1970BB1D73
:105A50001A70BB1D1C78FB1D1B78181C0621FAF759
:105A60002FFD0B1CDBB2191C054A231C5B001B1904
:105A70005B005B189B009B589847BD4603B090BDE8
:105A8000C885000080B500AFFFF7C6FFFEF7CCFA6F
:105A9000FEF798FABD4680BD80B500AFFEF786FAE6
:105AA000FFF78EFFFFF7A4FFBD4680BD80B582B033
:105AB00000AF021CBB1D1A80BB1D1B88181CFEF703
:105AC00093FABD4602B080BD80B500AF154B154AB4
:105AD00092688021C9050A439A60124B114A926864
:105AE000802149020A439A600E4B0E4A9268802137
:105AF000C9020A439A600B4B0A4A52688021890204
:105B00000A435A60084B084A526820210A435A60E7
:105B1000044B044A5268802109060A435A60BD4674
:105B200080BDC04600F00F4080F00F4080B584B0CB
:105B300000AF78600023FB607B68FB6003E0C04639
:105B4000FB68013BFB60FB68002BF8D1BD4604B04D
:105B500080BDC04680B500AF0320FEF783FC031C68
:105B6000181CBD4680BDC04680B500AF0420FEF7BE
:105B700079FC031C181CBD4680BDC04680B500AF33
:105B80000520FEF76FFC031C181CBD4680BDC046F7
:105B900080B58AB000AF021CFB1D1A7000237B6227
:105BA0000023FB610023BB6100237B6100233B6179
:105BB0000023FB603B1C0B3300221A703B1C233379
:105BC00000221A70634B1A68634B1340FB61FB6938
:105BD0005B08BB61FB69181C0521FAF72DFC031C4F
:105BE0007B61FA697B69D31A3B615C4B5B78002B64
:105BF00024D1FB1D1B78052B43D80122111C994091
:105C00000B1C24221A4006D112221A4009D1092263
:105C100013400CD135E00020FEF724FC031C7B620E
:105C20002FE00120FEF71EFC031C7B6229E002200E
:105C3000FEF718FC031C7B62C04622E0FB1D1B78AC
:105C4000052B1ED80122111C99400B1C24221A403E
:105C500011D112221A4008D10922134011D000207C
:105C6000FEF700FC031C7B620BE00120FEF7FAFB51
:105C7000031C7B6205E00220FEF7F4FB031C7B6241
:105C8000C0467A6A3B699A4259D27A6A7B699A42DB
:105C900055D93B1C0B33FA1D117801220A401A70AA
:105CA0003B1C0B331B78002B24D0BA69FB68D21A3B
:105CB0007B6A9A4216D22A4B1B780133DAB2284B00
:105CC0001A70274B1B78012B07D93B1C2333012269
:105CD0001A70234B00221A7034E03B1C233300223D
:105CE0001A702FE01E4B00221A703B1C2333002237
:105CF0001A7027E0BA69FB68D2187B6A9A4216D9F3
:105D0000174B1B780133DAB2154B1A70144B1B7802
:105D1000012B07D93B1C233301221A70104B0022A0
:105D20001A700FE03B1C233300221A700AE00C4B60
:105D300000221A703B1C233300221A7002E0084B29
:105D400000221A703B1C23331B78181CBD460AB076
:105D500080BDC04684F1FF1FF0FF000038F3FF1F35
:105D600054F1FF1F80B582B000AF78607B68002BD4
:105D700012D07868FBF77EFB031C181C0949FAF760
:105D8000FFFF031C0848191CFAF708FE031C181C27
:105D9000FAF71AFC031C00E00023181CBD4602B0F1
:105DA00080BDC0463EC32E3800606A4780B582B0D1
:105DB00000AF00237B60FB1C00221A70FB1C00223A
:105DC0001A700CE0FB1C1A780B4B9200D3587A68BF
:105DD000D3187B60FB1CFA1C127801321A70FB1C72
:105DE0001B78172BEED97B68181CFFF7BBFF031C31
:105DF000181CBD4602B080BD58F3FF1F0000000014
:105E0000B0B588B000AFF860B9607A600023BB61BC
:105E100000237B61BA68FB68D31A1A1CE04B1A6036
